:100000000C9451010C94EE080C9415090C94790190
:100010000C9479010C9479010C9479010C94790178
:100020000C9479010C9479010C9479010C94790168
:100030000C9479010C9479010C9479010C94790158
:100040000C943C090C9479010C94F50B0C94270C3E
:100050000C9479010C9479010C9479010C94790138
:100060000C9479010C9479012B03F420418900361A
:10007000400A1D806010622C00082B03F420418987
:100080000036400A1D806010622C33082B03F420D8
:1000900041890036400A1D806010622C22081B0333
:1000A000416027520007400A1E806013A92C223AA3
:1000B0001D03A1204EA50013400A1E806027522C6C
:1000C00022481E03D0009D490045400A2080604E12
:1000D000A52C22482B033402752507FF400A1B80FC
:1000E000609D492C220F020368013A9304D5400A0F
:1000F0001E806009D50C221F06034501D7DC076E60
:10010000400A2D80600EBF0C222E8A0360015555D7
:1001100002AD400A50806020000C22C82B03A1E0F1
:1001200010C70009400A1D806004322C22042703F6
:10013000A1E010C70006400A1D806004322C22078F
:100140002B03F42041890036400A1D806010622C88
:1001500023081B03416027520007400A1E806013DA
:10016000A92C233A1D03A1204EA50013400A1E808E
:100170006027522C23481E03D0009D490045400AA9
:100180002080604EA52C23482B033402752507FFE1
:10019000400A1B80609D492C230F020368013A939B
:1001A00004D5400A1E806009D50C231F06034501B3
:1001B000D7DC076E400A2D80600EBF0C232E8A0309
:1001C0006001555502AD400A50806020000C23C8E4
:1001D000510368003A93013D2C1128806009D52C09
:1001E0002108C803392068DC006B2A082A806013C4
:1001F000A92C2108C8039C00D1B700D42904298068
:100200006027522C2108B8039C00D1B700D4288263
:100210002980604EA52C2108A8039C00D1B700D4EA
:1002200028412980609D492C210898039C00D1B762
:1002300000D4282029806009D50C21089803960055
:10024000DA7400DC281F2980600A3D0C21080000B8
:100250000008000201000003040700000000000085
:100260000000010204081020408001020408102050
:10027000010204081020040404040404040402021B
:10028000020202020303030303030000000025002F
:1002900028002B0000000000240027002A00BA02DA
:1002A000570C11241FBECFEFD8E0DEBFCDBF11E049
:1002B000A0E0B1E0E6E8F0E202C005900D92A83DB2
:1002C000B107D9F722E0A8EDB1E001C01D92A13D30
:1002D000B207E1F712E0C2EAD2E004C02297FE01C1
:1002E0000E941710CE39D107C9F70E94A30D0C94B4
:1002F00041100C9400000F931F93CF93DF93CDB761
:10030000DEB7E3970FB6F894DEBF0FBECDBF82E332
:100310008BAB64EF71E08CED91E00E94F5058823D2
:1003200009F488C0AE014D5C5F4FBE016F5F7F4F27
:100330008CED91E00E942506882309F47BC0098199
:100340001A81C80168EE73E00E94DF0F20910E0150
:1003500030910F012617370709F05FC06AE070E09F
:100360000E94DF0F6B30710599F05CF46A30710503
:1003700009F053C066E171E084E392E00E94E50C6D
:100380004CC06C307105A1F06D30710529F145C08C
:10039000019709F042C065E371E084E392E00E94B6
:1003A000E50C61E080910C010E947A0A60E00EC0C9
:1003B000019799F569E471E084E392E00E94E50C0D
:1003C00061E080910C010E947A0A61E080910A014B
:1003D0000E947A0A60E013C00197F9F46DE571E0BC
:1003E00084E392E00E94E50C61E080910C010E94A0
:1003F0007A0A60E080910A010E947A0A61E08091A5
:1004000008010E947A0A60E0809106010E947A0A3F
:1004100060E0809104010E947A0A61E771E084E360
:1004200092E00E94D80C4AE050E0B80184E392E0E8
:100430000E949A0DE3960FB6F894DEBF0FBECDBFB3
:10044000DF91CF911F910F9108950F931F930E94F9
:1004500086090091D8011091D9012091DA013091DB
:10046000DB016017710782079307D8F060E0809185
:100470000C010E947A0A60E080910A010E947A0AC7
:1004800060E0809108010E947A0A60E08091060194
:100490000E947A0A60E0809104011F910F910C94F0
:1004A0007A0A1F910F9108950F931F9326E040E859
:1004B00055E260E070E084E392E00E94930B61E01B
:1004C00080910C010E94410A61E080910A010E9422
:1004D000410A61E0809108010E94410A61E0809137
:1004E00006010E94410A61E0809104010E94410AD4
:1004F00060E080910C010E947A0A60E080910A011C
:100500000E947A0A60E0809108010E947A0A60E005
:10051000809106010E947A0A60E0809104010E94A5
:100520007A0A8CED91E00E94BD07811106C062E855
:1005300071E084E392E00E94E50C0DEC1CEC2CE4ED
:100540003DE340E050E469ED73E48CED91E00E94FE
:10055000650466E08CED91E00E94680563E971E056
:1005600084E392E01F910F910C94D80C0E947B01C0
:100570000C94250220E131E040E06AE08CED91E04E
:100580000C943C03CF93CFB7F8948091240281114F
:1005900027C0E0E8F2E08491ECE6F2E09491E82FE5
:1005A000F0E0EE0FFF1FEC56FD4FA591B4918C913A
:1005B000892321F461E08AE00E947A0A61E08AE0FE
:1005C0000E94410A8CB580618CBD8CB580648CBD65
:1005D00061E08DE00E94410A61E08BE00E94410AE7
:1005E000809124028F5F80932402CFBFCF91089522
:1005F0009FB7F89480912402882319F0815080934A
:10060000240280912402811105C08CB58F7B8CBDA2
:10061000109223029FBF08956EBD00000DB407FE27
:10062000FDCF8EB508958CB580688CBD08958CB5CE
:100630008F778CBD08958CB5611102C0806201C0B6
:100640008F7D8CBD08958CB5837F682B6CBD08951C
:100650009CB5862F83709C7F892B8CBD8DB562FBEA
:10066000662760F98E7F862B8DBD08950C94C2029B
:100670000C94F80208950895FC0183EB91E09183B6
:1006800080836683478381E085831482DF01AE5BCC
:10069000BF4F11961C921E92129711961C921E9299
:1006A000149611961C921E923383228381E090E06F
:1006B0009287818708950F931F93CF93DF93EC0167
:1006C000062F1FB7F89460E08E810E947A0A8A8113
:1006D0009B81DC01ED91FC91602F6F770190F0819F
:1006E000E02D09958A819B81DC01ED91FC910190BF
:1006F000F081E02D60E00995082F61E08E810E9475
:100700007A0A1FBF802FDF91CF911F910F9108951B
:10071000EF92FF920F931F93CF93DF931F92CDB76A
:10072000DEB77C01062F1FB7F89460E0DC01169657
:100730008C9149830E947A0AF70182819381DC01BE
:10074000ED91FC91602F60680190F081E02D09959A
:10075000F70182819381DC01ED91FC910190F081A0
:10076000E02D4981642F099561E0F70186810E949F
:100770007A0A1FBF0F90DF91CF911F910F91FF90C9
:10078000EF90089540E867E00E94880361E070E020
:1007900080E090E00C94B509CF92DF92EF92FF9247
:1007A0000F931F93CF93DF9300D0CDB7DEB78C01AB
:1007B000D62EF22EEFB6F89460E0DC0116968C91FE
:1007C00049835A830E947A0AF80182819381DC016D
:1007D000ED91FC916D2D6F770190F081E02D0995E1
:1007E0004981C42E5A81D52EF40EFC1479F0F801FB
:1007F00082819381DC01ED91FC910190F081E02DEB
:1008000060E00995F60181936F01EFCF61E0D801B7
:1008100016968C910E947A0AEFBE0F900F90DF918E
:10082000CF911F910F91FF90EF90DF90CF9008959F
:10083000CF92DF92EF92FF920F931F93CF93DF93AC
:1008400000D0CDB7DEB78C01D62EF22EEFB6F894DD
:1008500060E0DC0116968C9149835A830E947A0AE3
:10086000F80182819381DC01ED91FC916D2D60682E
:100870000190F081E02D09954981C42E5A81D52E31
:10088000F40EFC1471F0F80182819381D6016D9110
:100890006D01DC01ED91FC910190F081E02D099555
:1008A000F0CF61E0F80186810E947A0AEFBE0F90D6
:1008B0000F90DF91CF911F910F91FF90EF90DF90FC
:1008C000CF90089562E00C945B036F927F928F92B9
:1008D0009F92AF92BF92CF92DF92EF92FF920F93CF
:1008E0001F93CF93DF9300D000D0CDB7DEB73C018C
:1008F0006A017B014801590120E030E040E753E400
:10090000C701B6010E94180E87FDBAC020E030E092
:1009100040E754E4C701B6010E94780F18160CF4A2
:10092000AFC020E030E040EF53E4C701B6010E94C1
:10093000780F20E030E0A90187FD2EC0C501B40189
:100940000E94180E87FD9CC023E333E343EA5EE375
:10095000C501B4010E94780F18160CF491C020E074
:1009600030E040E05FE3C701B6010E947C0F6B01FD
:100970007C0120E034E244E759E4C501B4010E945F
:100980007C0F20E030E44CE954E40E941C0E0E94ED
:10099000840EB62E00E623C0C501B4010E94180ED5
:1009A00087FD6EC023E333E343E25EE3C501B40198
:1009B0000E94780F18160CF463C020E034E244E77C
:1009C00059E4C501B4010E947C0F20E030E44CE101
:1009D00054E40E941C0E0E94840EB62E00E420E017
:1009E00030E040E251E4C701B6010E941C0E6B01E9
:1009F0007C010E94B00E9B01AC0129833A834B839A
:100A00005C830E94840E162F1851102B29813A8185
:100A10004B815C81C701B6010E94B30D20E030E03C
:100A20004AE757E40E947C0F0E94840E062F40E0A4
:100A300063E7C30179830E94880340E064E7C30150
:100A40000E948803412F65E7C3010E9488037981D2
:100A5000472F66E7C3010E948803402F67E7C30161
:100A60000E9488034B2D6AE2C3010E948803C301E0
:100A70000E94620483FB882780F991E0892701C0E6
:100A800080E00F900F900F900F90DF91CF911F910A
:100A90000F91FF90EF90DF90CF90BF90AF909F901D
:100AA0008F907F906F900895462F67E00C94880395
:100AB000CF93DF93EC018C81813039F06D816460DC
:100AC000CE010E94540581E08C83DF91CF9108957F
:100AD000462F6DE60C9488030F931F93CF93DF93FB
:100AE000EC018B01FB0140816CE10E948803F8015D
:100AF00041816FE1CE010E948803A8014E5F5F4FE4
:100B000026E060E2CE010E941804A801485F5F4F12
:100B100023E06CE2CE010E941804F801438568E5E9
:100B2000CE010E948803F801448569E6CE010E9447
:100B30008803A801435F5F4F25E06EE6CE01DF9199
:100B4000CF911F910F910C9418040F931F93CF9383
:100B5000DF93CDB7DEB762970FB6F894DEBF0FBE56
:100B6000CDBF8C016C317105B8F482E1869F900194
:100B7000879F300D112428593F4F42E150E0B901C1
:100B8000CE0101960E942F10BE016F5F7F4FC801FA
:100B90000E946C0581E001C080E062960FB6F89477
:100BA000DEBF0FBECDBFDF91CF911F910F91089592
:100BB000462F64E30C948803242FAB0166E30C9466
:100BC00018042FB7F894FC01138616AE2FBF0895B2
:100BD000CF93DF93EC018EAD811103C0CE010E9453
:100BE00058058EADDF91CF9108958F929F92AF926D
:100BF000BF92CF92DF92EF92FF92CF93DF93EC01FF
:100C00006B010E9486094B015C01E12CF12C0E94D2
:100C10008609681979098A099B096C157D058E0575
:100C20009F0538F4CE010E94E805882381F381E016
:100C300001C080E0DF91CF91FF90EF90DF90CF90E7
:100C4000BF90AF909F908F900895DF92EF92FF92A8
:100C50000F931F93CF93DF93EC017B018A010E94D6
:100C6000E8058823C1F0DFB6F8948B85F801908100
:100C7000891710F48B858083F801408150E0BE0114
:100C8000645F7F4FC7010E943810CE010E94E105CA
:100C9000DFBE81E001C080E0DF91CF911F910F9115
:100CA000FF90EF90DF9008952FB7F894FC01138622
:100CB00017AE2FBF08951F93CF93DF93EC019FAD25
:100CC0008B859817A0F41B858FAD181B1C3308F07B
:100CD0001BE34FAD50E0445F5F4F4C0F5D1F212F72
:100CE0006FE7CE010E9418048FAD810F8FAFDF91A7
:100CF000CF911F910895FC0183850895CF93DF93D1
:100D0000EC0143E068E00E94880340E068E0CE0127
:100D1000DF91CF910C948803CF93DF93EC0142E0F5
:100D200068E00E94880340E068E0CE01DF91CF9147
:100D30000C948803CF93DF93EC018C81823061F0B7
:100D40006D816860CE010E94540582E08C83CE01E3
:100D5000DF91CF910C948C06DF91CF910895CF93C2
:100D6000DF93EC010E945B064B856EE3CE010E948F
:100D70008803CE01DF91CF910C949A06FC01148276
:100D800017AE0C94AF06FF920F931F93CF93DF9390
:100D900000D0CDB7DEB78C0122E0AE014F5F5F4FD0
:100DA00063E00E94CC03898187FF13C0C8010E94C1
:100DB0007E06D80114968C91823021F4C8010E94DD
:100DC000BE0607C0F8018481813019F4C8010E9471
:100DD000E105898185FF03C0C8010E945B06898106
:100DE00084FF03C0C8010E947B06898183FF08C07D
:100DF000D801ED91FC910190F081E02DC801099599
:100E00008A8183FF08C0D801ED91FC910280F381B3
:100E1000E02DC8010995298122FF0AC0F801EC5B89
:100E2000FF4F80819181019691838083F801148224
:100E300021FF2EC06BE4C8010E945B03F82EF2E391
:100E4000F81708F453C0D8011B968C91F81608F4D3
:100E50004DC0D8011B968C911B971B964C912F2D42
:100E6000281B50E0445F5F4F400F511F6FE7C801E0
:100E70000E94CC03F801EE5BFF4F208131812F5F90
:100E80003F4F31832083F801F386148281E086AFDF
:100E9000898180FF1CC0F801E05CFF4F8081918157
:100EA000019691838083C8010E94E105C8010E94D8
:100EB0008C06F80114828481813049F06581646078
:100EC000C8010E94540581E0D80114968C938A8150
:100ED00086FF19C066E2C8010E945B03F801EA5B65
:100EE000FF4F8083C8010E948C060AC0F801E05CB5
:100EF000FF4F80819181019691838083F801148254
:100F0000C8010E94E1050F900F90DF91CF911F91D2
:100F10000F91FF90089580912502909126020097ED
:100F200011F00C94C3060895809127029091280235
:100F3000009711F00C94C3060895809129029091B6
:100F40002A02009711F00C94C3060895462F6AE315
:100F50000C948803462F6BE30C948803462F6CE3B4
:100F60000C948803462F6DE30C948803462F21E0F0
:100F70004227419563E40C9488030F931F93CF930A
:100F8000DF9300D0CDB7DEB78C0160E170E080E088
:100F900090E00E94B50961E0D80116968C910E94FC
:100FA000410A61E0F80186810E947A0AD80112960E
:100FB0008D919C911397DC01ED91FC910680F78156
:100FC000E02D0995F80182819381DC01ED91FC917E
:100FD0000484F585E02D60E00995F8018281938114
:100FE000DC01ED91FC910284F385E02D61E009952F
:100FF000F80182819381DC01ED91FC910684F785F3
:10100000E02D61E0099564E670E080E090E00E94E8
:10101000B509C8010E94C20360E0C8010E945B03D9
:10102000F80180878750823008F0AFC08781811136
:1010300009C0109326020093250242E050E06BE8BD
:1010400077E016C0813049F41093280200932702FC
:1010500042E050E064E977E00BC0823009F095C0CF
:1010600010932A020093290242E050E06DE977E0F4
:101070000E94CE08C8010E945406C8010E94E105E2
:1010800044E06DE7C8010E94880347E36EE7C801AA
:101090000E948803D80119964C9143704C6860E314
:1010A000C8010E94880348E862E3C8010E948803DF
:1010B00042E463E3C8010E94880368E0C8010E941B
:1010C000D8058DE2898384ED8A8342E0BE016F5F9B
:1010D0007F4FC8010E94DC0560E0C8010E94B6078E
:1010E00040E06FE3C8010E94880360E0C8010E94ED
:1010F000A60760E0C8010E94AA0760E0C8010E943C
:10110000AE0760E0C8010E94B20742E16BE0C8018F
:101110000E94880345E16CE0C8010E94880347EB08
:1011200065E0C8010E94880340E466E0C8010E94AF
:10113000880340E063E7C8010E94880340E064E759
:10114000C8010E94880343E565E7C8010E9488033F
:1011500044E666E7C8010E94880340E067E7C801EB
:101160000E94880340E56AE2C8010E948803C80122
:101170000E94620463E070E0C8010E94A50563E07C
:10118000C8010E94680581E001C080E00F900F90C7
:10119000DF91CF911F910F91089508958230E8F467
:1011A000E82FF0E0EE0FFF1FEE5EFE4F71836083CD
:1011B000813041F0809169008C7F842B809369009D
:1011C000E89A089580916900440F551F440F551FF8
:1011D000837F842B80936900E99A08951F920F9270
:1011E0000FB60F9211242F933F934F935F936F93FA
:1011F0007F938F939F93AF93BF93EF93FF93E09170
:101200001201F09113010995FF91EF91BF91AF91F8
:101210009F918F917F916F915F914F913F912F910E
:101220000F900FBE0F901F9018951F920F920FB640
:101230000F9211242F933F934F935F936F937F935C
:101240008F939F93AF93BF93EF93FF93E09114011C
:10125000F09115010995FF91EF91BF91AF919F9189
:101260008F917F916F915F914F913F912F910F904F
:101270000FBE0F901F9018951F920F920FB60F92EE
:1012800011242F933F938F939F93AF93BF9380919C
:101290002C0290912D02A0912E02B0912F0230913C
:1012A0002B0223E0230F2D3720F40196A11DB11D41
:1012B00005C026E8230F0296A11DB11D20932B0225
:1012C00080932C0290932D02A0932E02B0932F02B4
:1012D0008091300290913102A0913202B09133029C
:1012E0000196A11DB11D8093300290933102A0930D
:1012F0003202B0933302BF91AF919F918F913F9192
:101300002F910F900FBE0F901F9018952FB7F89444
:1013100060912C0270912D0280912E0290912F02EB
:101320002FBF08953FB7F894809130029091310219
:10133000A0913202B091330226B5A89B05C02F3F81
:1013400019F00196A11DB11D3FBF6627782F892F87
:101350009A2F620F711D811D911D42E0660F771F4C
:10136000881F991F4A95D1F70895CF92DF92EF9287
:10137000FF92CF93DF936B017C010E949209EB01F6
:10138000C114D104E104F10489F00E94B20D0E945D
:1013900092096C1B7D0B683E734090F381E0C81A84
:1013A000D108E108F108C851DC4FEACFDF91CF91B5
:1013B000FF90EF90DF90CF900895789484B582608D
:1013C00084BD84B5816084BD85B5826085BD85B5E9
:1013D000816085BDEEE6F0E0808181608083E1E898
:1013E000F0E01082808182608083808181608083D0
:1013F000E0E8F0E0808181608083E1EBF0E08081D3
:1014000084608083E0EBF0E0808181608083EAE7A4
:10141000F0E080818460808380818260808380812D
:10142000816080838081806880831092C1000895EC
:10143000833081F028F4813099F08230A1F0089552
:101440008730A9F08830B9F08430D1F480918000E1
:101450008F7D03C0809180008F77809380000895F6
:1014600084B58F7702C084B58F7D84BD0895809147
:10147000B0008F7703C08091B0008F7D8093B00063
:101480000895CF93DF9390E0FC01EE59FD4F249136
:10149000FC01EA58FD4F8491882349F190E0880FC0
:1014A000991FFC01EC56FD4FA591B49186579D4FB5
:1014B000FC01C591D4919FB7611108C0F8948C913B
:1014C000209582238C93888182230AC0623051F454
:1014D000F8948C91322F309583238C938881822BC2
:1014E000888304C0F8948C91822B8C939FBFDF91EA
:1014F000CF9108950F931F93CF93DF931F92CDB792
:10150000DEB7282F30E0F901E25BFD4F8491F9014D
:10151000EE59FD4F1491F901EA58FD4F0491002353
:10152000C9F0882321F069830E94180A6981E02F9D
:10153000F0E0EE0FFF1FE657FD4FA591B4919FB766
:10154000F8948C91611103C01095812301C0812B07
:101550008C939FBF0F90DF91CF911F910F910895B2
:10156000FC01818D228D90E0805C9F4F821B910950
:101570008F7399270895FC01918D828D981731F012
:10158000828DE80FF11D858D90E008958FEF9FEF1C
:101590000895FC01918D828D981761F0828DDF0195
:1015A000A80FB11D5D968C91928D9F5F9F73928F56
:1015B00090E008958FEF9FEF08958DE49CE0892BD4
:1015C00049F080E090E0892B29F00E944D0C8111B8
:1015D0000C9400000895FC01848DDF01A80FB11D5B
:1015E000A35ABF4F2C91848D90E001968F73992759
:1015F000848FA689B7892C93A089B1898C91806446
:101600008C93938D848D981306C00288F389E02D06
:1016100080818F7D80830895CF93DF93EC01888D47
:101620008823C9F0EA89FB89808185FD05C0A889E6
:10163000B9898C9186FD0FC00FB607FCF5CF80816C
:1016400085FFF2CFA889B9898C9185FFEDCFCE01B6
:101650000E94EB0AE7CFDF91CF910895CF92DF92FE
:10166000FF920F931F93CF93DF931F92CDB7DEB7F7
:101670006C0181E0D60158968C9358975B969C91AB
:101680005B975C968C915C97981307C05096ED9190
:10169000FC915197808185FD2EC0F601038D10E0ED
:1016A0000F5F1F4F0F731127F02EF601848DF81274
:1016B00011C00FB607FCF9CFD6015096ED91FC9101
:1016C0005197808185FFF1CFC60169830E94EB0AA3
:1016D0006981EBCF838DE80FF11DE35AFF4F6083E3
:1016E000D6015B960C935B975296ED91FC915397C4
:1016F000808180620CC0D6015696ED91FC9157977F
:1017000060835096ED91FC91519780818064808335
:1017100081E090E00F90DF91CF911F910F91FF90AA
:10172000DF90CF900895BF92CF92DF92EF92FF9219
:10173000CF93DF93EC016A017B01B22EE889F9892E
:1017400082E08083411581EE580761057105A1F0A3
:1017500060E079E08DE390E0A70196010E94F30F2D
:1017600021503109410951095695479537952795DB
:10177000211580E1380798F0E889F989108260E83E
:1017800074E88EE190E0A70196010E94F30F2150CA
:101790003109410951095695479537952795EC85AB
:1017A000FD853083EE85FF852083188EEC89FD89C9
:1017B000B082EA89FB89808180618083EA89FB8924
:1017C000808188608083EA89FB898081806880834A
:1017D000EA89FB8980818F7D8083DF91CF91FF90A3
:1017E000EF90DF90CF90BF9008951F920F920FB6A9
:1017F0000F9211242F938F939F93EF93FF93E09178
:101800004402F09145028081E0914A02F0914B023E
:1018100082FD12C0908180914D028F5F8F73209165
:101820004E02821751F0E0914D02F0E0EC5CFD4F6A
:10183000958F80934D0201C08081FF91EF919F9120
:101840008F912F910F900FBE0F901F9018951F92A0
:101850000F920FB60F9211242F933F934F935F93E4
:101860006F937F938F939F93AF93BF93EF93FF9368
:1018700084E392E00E94EB0AFF91EF91BF91AF9158
:101880009F918F917F916F915F914F913F912F9198
:101890000F900FBE0F901F90189584E392E00E9466
:1018A000B00A21E0892B09F420E0822F08951092DC
:1018B00037021092360288EE93E0A0E0B0E0809309
:1018C000380290933902A0933A02B0933B028BEB1B
:1018D00091E0909335028093340285EC90E09093F0
:1018E00041028093400284EC90E090934302809305
:1018F000420280EC90E0909345028093440281EC98
:1019000090E0909347028093460282EC90E090939F
:1019100049028093480286EC90E090934B028093BA
:101920004A0210924D0210924E0210924F021092F3
:1019300050020895CF92DF92EF92FF920F931F9380
:10194000CF93DF937C016A01EB0100E010E00C15FE
:101950001D0571F06991D701ED91FC910190F08125
:10196000E02DC7010995892B19F00F5F1F4FEFCFAD
:10197000C801DF91CF911F910F91FF90EF90DF9001
:10198000CF9008956115710581F0DB010D90002065
:10199000E9F7AD0141505109461B570BDC01ED91B0
:1019A000FC910280F381E02D099480E090E008959D
:1019B0000C94C20CDC01ED91FC910190F081E02DC2
:1019C000099467EC71E00C94C20C0F931F93CF93B2
:1019D000DF93EC010E94C20C8C01CE010E94E10C4D
:1019E000800F911FDF91CF911F910F9108958F92DA
:1019F0009F92AF92BF92CF92DF92EF92FF920F939E
:101A00001F93CF93DF93CDB7DEB7A1970FB6F894AE
:101A1000DEBF0FBECDBF7C01C42EE52FCB01D22E81
:101A200019A221E02D1510F02AE0D22E8E010F5DB3
:101A30001F4F8D2C912CA12CB12C6C2D7E2FA5012C
:101A400094010E94F30F8C2DD29E80191124015015
:101A500011098A3014F4805D01C0895CF80180832B
:101A6000211531054105510521F0C22EE32FCA0190
:101A7000E4CFB801C7010E94C20CA1960FB6F8943A
:101A8000DEBF0FBECDBFDF91CF911F910F91FF90B1
:101A9000EF90DF90CF90BF90AF909F908F90089580
:101AA000CF92DF92EF92FF920F931F93CF93DF932A
:101AB000EC016A017B012115310579F4E881F98196
:101AC0000190F081E02D642FDF91CF911F910F9154
:101AD000FF90EF90DF90CF9009942A303105E9F420
:101AE00077FF1AC06DE20E94DA0C8C01442755275B
:101AF000BA014C195D096E097F092AE0CE010E94E6
:101B0000F70C800F911FDF91CF911F910F91FF90E4
:101B1000EF90DF90CF9008952AE0B701A601CE01A3
:101B2000DF91CF911F910F91FF90EF90DF90CF90B9
:101B30000C94F70C9A01AB01662757FD6095762F40
:101B40000C94500D08950E94DD090E94A20D0E9480
:101B50005402CDEDDAE00E94B6022097E1F30E9434
:101B6000DD0AF9CF08955058BB27AA270ED06FC1C0
:101B700060D130F065D120F031F49F3F11F41EF4B4
:101B800055C10EF4E095E7FB22C1E92F71D180F336
:101B9000BA17620773078407950718F071F49EF56A
:101BA000A0C10EF4E0950B2EBA2FA02D0B01B901A8
:101BB00090010C01CA01A0011124FF27591B99F0C3
:101BC000593F50F4503E68F11A16F040A22F232FCF
:101BD000342F4427585FF3CF469537952795A7951F
:101BE000F0405395C9F77EF41F16BA0B620B730BC6
:101BF000840BBAF09150A1F0FF0FBB1F661F771F37
:101C0000881FC2F70EC0BA0F621F731F841F48F4EB
:101C1000879577956795B795F7959E3F08F0B3CF71
:101C20009395880F08F09927EE0F9795879508955B
:101C3000AAD008F481E008950CD009C101D140F088
:101C4000F8D030F021F45F3F19F0C1C051114AC102
:101C5000EDC00ED198F39923C9F35523B1F3951B29
:101C6000550BBB27AA2762177307840738F09F5FBD
:101C70005F4F220F331F441FAA1FA9F333D00E2E2C
:101C80003AF0E0E830D091505040E695001CCAF799
:101C900029D0FE2F27D0660F771F881FBB1F26175E
:101CA00037074807AB07B0E809F0BB0B802DBF0131
:101CB000FF2793585F4F2AF09E3F510568F087C079
:101CC00011C15F3FECF3983EDCF3869577956795FD
:101CD000B795F7959F5FC9F7880F911D96958795E2
:101CE00097F90895E1E0660F771F881FBB1F621701
:101CF00073078407BA0720F0621B730B840BBA0BBF
:101D0000EE1F88F7E0950895BBD088F09F5790F0BC
:101D1000B92F9927B751A0F0D1F0660F771F881F10
:101D2000991F1AF0BA95C9F712C0B13081F0D9D015
:101D3000B1E00895D6C0672F782F8827B85F39F0B3
:101D4000B93FCCF3869577956795B395D9F73EF46F
:101D500090958095709561957F4F8F4F9F4F089517
:101D6000A9D080F09F3740F491110EF0BBC060E025
:101D700070E080E89FEB089526F41B16611D711D2D
:101D8000811D2BC045C0990F0008550FAA0BE0E834
:101D9000FEEF16161706E807F907C0F0121613062D
:101DA000E407F50798F0621B730B840B950B39F46D
:101DB0000A2661F0232B242B252B21F408950A26D3
:101DC00009F4A140A6958FEF811D811D089597F913
:101DD0009F6780E870E060E00895882371F47723BE
:101DE00021F09850872B762F07C0662311F499278E
:101DF0000DC09051862B70E060E02AF09A95660F36
:101E0000771F881FDAF7880F9695879597F90895B9
:101E10009F3F31F0915020F4879577956795B7955E
:101E2000880F911D9695879597F908959FEF80ECFF
:101E3000089500240A941616170618060906089530
:101E400000240A9412161306140605060895092E96
:101E50000394000C11F4882352F0BB0F40F4BF2B05
:101E600011F460FF04C06F5F7F4F8F4F9F4F089545
:101E700057FD9058440F551F59F05F3F71F047953B
:101E8000880F97FB991F61F09F3F79F08795089520
:101E9000121613061406551FF2CF4695F1DF08C03F
:101EA000161617061806991FF1CF8695710561055C
:101EB00008940895E5DFA0F0BEE7B91788F4BB27C2
:101EC0009F3860F41616B11D672F782F8827985F0A
:101ED000F7CF869577956795B11D93959639C8F399
:101EE0000895E894BB2766277727CB0197F90895D3
:101EF0004ADF08F48FEF08950BD0A9CF9ADF28F0BE
:101F00009FDF18F0952309F062CF90CF1124EACF1C
:101F1000AFDFA0F3959FD1F3950F50E0551F629F5F
:101F2000F001729FBB27F00DB11D639FAA27F00D32
:101F3000B11DAA1F649F6627B00DA11D661F829F59
:101F40002227B00DA11D621F739FB00DA11D621F3E
:101F5000839FA00D611D221F749F3327A00D611D5B
:101F6000231F849F600D211D822F762F6A2F11243D
:101F70009F5750408AF0E1F088234AF0EE0FFF1F90
:101F8000BB1F661F771F881F91505040A9F79E3FC7
:101F9000510570F01CCFA6CF5F3FECF3983EDCF309
:101FA000869577956795B795F795E7959F5FC1F704
:101FB000FE2B880F911D9695879597F9089597FBAD
:101FC000072E16F4009407D077FD09D00E941B104D
:101FD00007FC05D03EF4909581959F4F089570952C
:101FE00061957F4F0895A1E21A2EAA1BBB1BFD012C
:101FF0000DC0AA1FBB1FEE1FFF1FA217B307E407E8
:10200000F50720F0A21BB30BE40BF50B661F771F3F
:10201000881F991F1A9469F760957095809590951F
:102020009B01AC01BD01CF010895EE0FFF1F05908C
:10203000F491E02D0994AA1BBB1B51E107C0AA1F14
:10204000BB1FA617B70710F0A61BB70B881F991F59
:102050005A95A9F780959095BC01CD010895FB0193
:10206000DC0102C005900D9241505040D8F7089510
:10207000FB01DC0102C001900D9241505040D8F7A5
:062080000895F894FFCF63
:1020860001000000090008000700060005000B001B
:102096009F01CD08CD087370726177647A656E69A9
:1020A6006520637A79206F6462696F726E696B204E
:1020B6007A796A65006F6470616C656E6965207710
:1020C600796A736369612031006F6470616C656E53
:1020D60069652077796A736369612032006F64707D
:1020E600616C656E69652077796A7363696120330F
:1020F600006D616D79206F64706F776965647A3AF7
:1021060020005246323220696E6974206661696C1D
:102116006564007374617274757000000000000CD1
:102126000313031703360338031B03230328030093
:102136000000003A033B03000000002E0B9A0CB08F
:102146000AC90ABB0A0C0B0D0A006E616E00696EA5
:0821560066006F7666002E00A2
:107800000C94343C0C94513C0C94513C0C94513CE1
:107810000C94513C0C94513C0C94513C0C94513CB4
:107820000C94513C0C94513C0C94513C0C94513CA4
:107830000C94513C0C94513C0C94513C0C94513C94
:107840000C94513C0C94513C0C94513C0C94513C84
:107850000C94513C0C94513C0C94513C0C94513C74
:107860000C94513C0C94513C11241FBECFEFD8E036
:10787000DEBFCDBF11E0A0E0B1E0ECE9FFE702C060
:1078800005900D92A230B107D9F712E0A2E0B1E065
:1078900001C01D92AD30B107E1F70E942D3D0C945F
:1078A000CC3F0C94003C982F959595959595959582
:1078B000905D8F708A307CF0282F295A8091C0000B
:1078C00085FFFCCF9093C6008091C00085FFFCCF60
:1078D0002093C6000895282F205DF0CF982F809127
:1078E000C00085FFFCCF9093C6000895EF92FF92F1
:1078F0000F931F93EE24FF2487018091C00087FD22
:1079000017C00894E11CF11C011D111D81E4E8164B
:1079100082E4F8068FE0080780E0180770F3E09132
:107920000401F091050109958091C00087FFE9CF1E
:107930008091C6001F910F91FF90EF9008950E94D3
:10794000763C982F8091C00085FFFCCF9093C600B5
:1079500091362CF490330CF09053892F089597555D
:10796000892F08951F930E949F3C182F0E949F3CCF
:107970001295107F810F1F9108951F93182F882350
:1079800021F00E94763C1150E1F71F9108951F935A
:10799000182F0E94763C803249F0809103018F5F5E
:1079A000809303018530C1F01F9108958091C0003C
:1079B00085FFFCCF84E18093C6008091C00085FFE5
:1079C000FCCF1093C6008091C00085FFFCCF80E102
:1079D0008093C6001F910895E0910401F091050184
:1079E00009951F9108950E94763C803241F0809164
:1079F00003018F5F80930301853081F008958091AA
:107A0000C00085FFFCCF84E18093C6008091C00058
:107A100085FFFCCF80E18093C6000895E0910401CA
:107A2000F09105010995089540E951E08823A1F0FE
:107A30002D9A28EE33E0FA013197F1F721503040CA
:107A4000D1F72D9828EE33E0FA013197F1F7215064
:107A50003040D1F7815061F708953F924F925F9285
:107A60006F927F928F929F92AF92BF92CF92DF924E
:107A7000EF92FF920F931F93CF93DF93000080E16B
:107A80008093C4001092C50088E18093C10086E015
:107A90008093C2005098589A259A81E00E94143D24
:107AA00024E1F22E9EE1E92E85E9D82E0FE0C02ECA
:107AB00010E1B12EAA24A394B1E49B2EA6E58A2E50
:107AC000F2E57F2EE0E26E2E79E4572E63E5462E36
:107AD00050E5352E0E94763C8033B1F18133B9F107
:107AE000803409F46FC0813409F476C0823409F41B
:107AF00085C0853409F488C0803531F1823521F1A3
:107B0000813511F1853509F485C0863509F48DC0BC
:107B1000843609F496C0843709F403C1853709F423
:107B200072C1863709F466C0809103018F5F80932C
:107B30000301853079F6E0910401F0910501099582
:107B40000E94763C803351F60E94F33CC3CF0E94E2
:107B5000763C803249F78091C00085FFFCCFF092DF
:107B6000C6008091C00085FFFCCF9092C600809136
:107B7000C00085FFFCCF8092C6008091C00085FFC9
:107B8000FCCF7092C6008091C00085FFFCCF609250
:107B9000C6008091C00085FFFCCF5092C600809146
:107BA000C00085FFFCCF4092C6008091C00085FFD9
:107BB000FCCF3092C6008091C00085FFFCCFB09210
:107BC000C60088CF0E94763C863808F4BDCF0E945C
:107BD000763C0E94F33C7ECF0E94763C803809F4CC
:107BE0009CC0813809F40BC1823809F43CC1883942
:107BF00009F48FC080E00E94C73C6CCF84E10E94F2
:107C0000BD3C0E94F33C66CF85E00E94BD3C0E94D3
:107C1000F33C60CF0E94763C809306010E94763C44
:107C2000809307010E94F33C55CF0E94763C80333D
:107C300009F41DC183E00E94BD3C80E00E94C73C66
:107C400049CF0E94763C809309020E94763C809343
:107C5000080280910C028E7F80930C020E94763C79
:107C6000853409F415C18091080290910902892B8D
:107C700089F000E010E00E94763CF801E85FFE4FDA
:107C800080830F5F1F4F80910802909109020817AF
:107C9000190788F30E94763C803209F045CF809125
:107CA0000C0280FF01C16091060170910701660F0F
:107CB000771F7093070160930601A0910802B091AD
:107CC00009021097C9F0E8E0F1E09B01AD014E0F09
:107CD0005F1FF999FECF32BD21BD819180BDFA9A17
:107CE000F99A2F5F3F4FE417F50799F76A0F7B1F4B
:107CF00070930701609306018091C00085FFFCCF5F
:107D0000F092C6008091C00085FFFCCFB092C60003
:107D1000E1CE83E00E94C73CDDCE82E00E94C73CFA
:107D2000D9CE0E94763C809309020E94763C8093D3
:107D300008028091060190910701880F991F909386
:107D40000701809306010E94763C853409F4A6C0A1
:107D500080910C028E7F80930C020E94763C8032D0
:107D600009F0B8CE8091C00085FFFCCFF092C6002C
:107D7000609108027091090261157105B9F140E046
:107D800050E080910C02A82FA170B82FB27011C0E2
:107D9000BB2309F45CC0E0910601F0910701319624
:107DA000F0930701E09306014F5F5F4F46175707B7
:107DB000E8F4AA2369F3F999FECF209106013091E6
:107DC000070132BD21BDF89A90B58091C00085FFB2
:107DD000FCCF9093C6002F5F3F4F30930701209355
:107DE00006014F5F5F4F4617570718F38091C00099
:107DF00085FDE5CE8091C00085FFF8CFE0CE81E023
:107E00000E94C73C67CE0E94763C803209F08CCE3F
:107E10008091C00085FFFCCFF092C6008091C00029
:107E200085FFFCCFE092C6008091C00085FFFCCFAB
:107E3000D092C6008091C00085FFFCCFC092C600E2
:107E40008091C00085FFFCCFB092C60043CEE09188
:107E50000601F091070194918091C00085FFFCCF4D
:107E60009093C6009CCF80E10E94C73C33CE0E9415
:107E7000763C0E94763C182F0E94763C112309F430
:107E800083C0113009F484C08FE00E94C73C22CE29
:107E900080910C02816080930C02E5CE80910C02EF
:107EA000816080930C0259CF809107018823880F4D
:107EB000880B8A2180930B02809106019091070123
:107EC000880F991F90930701809306018091080203
:107ED00080FF09C080910802909109020196909359
:107EE000090280930802F894F999FECF1127E091D6
:107EF0000601F0910701C8E0D1E08091080290915D
:107F00000902103091F40091570001700130D9F34B
:107F100003E000935700E89500915700017001308D
:107F2000D9F301E100935700E89509901990009169
:107F3000570001700130D9F301E000935700E89534
:107F40001395103498F011270091570001700130FB
:107F5000D9F305E000935700E895009157000170B0
:107F60000130D9F301E100935700E895329602976A
:107F700009F0C7CF103011F00296E5CF112480919F
:107F8000C00085FFB9CEBCCE8EE10E94C73CA2CD19
:0C7F900085E90E94C73C9ECDF894FFCF0D
:027F9C00800063
:040000030000780081
:00000001FF
