:100000000C9472010C942D0B0C94540B0C949A01CB
:100010000C949A010C949A010C949A010C949A01F4
:100020000C949A010C949A010C949A010C949A01E4
:100030000C949A010C949A010C949A010C949A01D4
:100040000C947B0B0C949A010C94510E0C94830E1F
:100050000C949A010C949A010C949A010C949A01B4
:100060000C949A010C949A0129022D023B023F0242
:1000700048024C02550259026C02700279027D025C
:100080008B028F0298029C020103080314032003D1
:100090002C033803440350035C0368037403800398
:1000A0008C039703A203AD03B8032B03F42041890B
:1000B0000036400A1D806010622C00082B03F420DB
:1000C00041890036400A1D806010622C33082B03E2
:1000D000F42041890036400A1D806010622C2208FD
:1000E0001B03416027520007400A1E806013A92CA1
:1000F000223A1D03A1204EA50013400A1E8060274E
:10010000522C22481E03D0009D490045400A208001
:10011000604EA52C22482B033402752507FF400AA8
:100120001B80609D492C220F020368013A9304D57D
:10013000400A1E806009D50C221F06034501D7DC4A
:10014000076E400A2D80600EBF0C222E8A036001CC
:10015000555502AD400A50806020000C22C82B0388
:10016000A1E010C70009400A1D806004322C22045F
:100170002703A1E010C70006400A1D806004322C4E
:1001800022072B03F42041890036400A1D806010AD
:10019000622C23081B03416027520007400A1E807F
:1001A0006013A92C233A1D03A1204EA50013400A79
:1001B0001E806027522C23481E03D0009D49004515
:1001C000400A2080604EA52C23482B03340275255D
:1001D00007FF400A1B80609D492C230F0203680122
:1001E0003A9304D5400A1E806009D50C231F0603EC
:1001F0004501D7DC076E400A2D80600EBF0C232E10
:100200008A036001555502AD400A50806020000C01
:1002100023C8510368003A93013D2C1128806009DE
:10022000D52C2108C803392068DC006B2A082A80F5
:100230006013A92C2108C8039C00D1B700D429045D
:1002400029806027522C2108B8039C00D1B700D424
:1002500028822980604EA52C2108A8039C00D1B7D4
:1002600000D428412980609D492C210898039C00D6
:10027000D1B700D4282029806009D50C2108980323
:100280009600DA7400DC281F2980600A3D0C2108E2
:100290000000000800020100000304070000000045
:1002A0000000000001020408102040800102040840
:1002B00010200102040810200404040404040404AF
:1002C0000202020202020303030303030000000010
:1002D000250028002B0000000000240027002A0031
:1002E0008204B30E11241FBECFEFD8E0DEBFCDBF16
:1002F00012E0A0E0B1E0EEE5F5E202C005900D925B
:10030000A43EB107D9F723E0A4EEB2E001C01D92EC
:10031000AF3DB207E1F712E0C4EED2E004C022978D
:10032000FE010E948312C03ED107C9F70E940F1040
:100330000C94AD120C94000080910E010E94570C99
:100340009C012E5131092131310558F051E040E036
:100350002C5E3F4F2531310508F050E0252F342F1A
:1003600002C022E030E0AC014F5251094431510546
:1003700010F423E030E0AC014354510946315105FB
:1003800010F424E030E0AC014755510943315105E8
:1003900010F425E030E0AC014A5651094A305105CD
:1003A00010F426E030E0AC014457510940315105CA
:1003B00010F427E030E0AC014458510943315105B5
:1003C00010F428E030E0AC01475951094A3051059A
:1003D00010F429E030E0AC01415A51094F30510589
:1003E00010F42AE030E0AC01405B51094F30510578
:1003F00010F42BE030E0AC014F5B51094F30510558
:1004000010F42CE030E0AC014E5C51094F30510546
:1004100010F42DE030E0AC014D5D51094A3051053A
:1004200010F42EE030E0875E91090B9710F42FE076
:1004300030E0C9010A96089501978031910508F0CE
:1004400091C08C5C9F4FFC0161E080910C010C9489
:1004500081120E94D60C60E003C00E94D60C61E0BD
:1004600080910A010E94D60C60E0809108010E94F0
:10047000D60C60E02BC00E94D60C60E003C00E9446
:10048000D60C61E080910A010E94D60C61E0EDCFAC
:100490000E94D60C60E003C00E94D60C61E08091FF
:1004A0000A010E94D60C60E00CC00E94D60C60E0ED
:1004B00003C00E94D60C61E080910A010E94D60C14
:1004C00061E0809108010E94D60C61E080910601F4
:1004D0000E94D60C60E042C00E94D60C60E003C0CF
:1004E0000E94D60C61E080910A010E94D60C60E067
:1004F0000CC00E94D60C60E003C00E94D60C61E0E4
:1005000080910A010E94D60C61E0809108010E944E
:10051000D60C60E01EC00E94D60C60E003C00E94B2
:10052000D60C61E080910A010E94D60C60E00CC0FC
:100530000E94D60C60E003C00E94D60C61E080915E
:100540000A010E94D60C61E0809108010E94D60C3D
:1005500061E0809106010E94D60C61E08091040167
:100560000E94D60C0E94C50B68577C4E8F4F9F4F40
:100570006093E4027093E5028093E6029093E702B1
:100580000895CF93DF93CDB7DEB7E5970FB6F89414
:10059000DEBF0FBECDBF82E38DAB64EF71E08AEEAC
:1005A00092E00E94BD07882309F408C1AE014B5CAC
:1005B0005F4FBE016F5F7F4F8AEE92E00E94F207AD
:1005C000882309F4FBC089819A819CAB8BAB68EED0
:1005D00073E00E944B122091E8023091E902261745
:1005E000370709F0EBC06AE070E00E944B12FB0194
:1005F0003A97E131F10508F0C7C0EC5BFF4F0C946E
:10060000811267E171E082E493E00E94410FBCC077
:10061000019709F0B9C066E371E082E493E00E94BB
:10062000410F81E090E0AEC0019709F0ADC06AE4EF
:1006300071E082E493E00E94410F82E090E0A2C06A
:10064000019709F0A1C06EE571E082E493E00E9499
:10065000410F83E090E096C0019709F095C062E7F2
:1006600071E082E493E00E94410F84E090E08AC050
:10067000019709F089C066E871E082E493E00E9486
:10068000410F85E090E07EC0019709F07DC06AE9E6
:1006900071E082E493E00E94410F86E090E072C036
:1006A000019709F071C06EEA71E082E493E00E9464
:1006B000410F87E090E066C0019709F065C062ECE9
:1006C00071E082E493E00E94410F88E090E05AC01C
:1006D000019709F059C066ED71E082E493E00E9451
:1006E000410F89E090E04EC0019709F04DC06AEEDD
:1006F00071E082E493E00E94410F8AE090E042C002
:10070000019709F041C06FEF71E082E493E00E942D
:10071000410F8BE090E036C00197B1F564E172E0E3
:1007200082E493E00E94410F8CE090E02BC001979F
:1007300059F569E272E082E493E00E94410F8DE096
:1007400090E020C0019701F56EE372E082E493E04F
:100750000E94410F8EE090E015C00197A9F463E577
:1007600072E082E493E00E94410F8FE090E00AC0C3
:10077000019751F468E672E082E493E00E94410F31
:1007800080E190E00E941C026DE772E082E493E059
:100790000E94340F6BA97CA94AE050E082E493E008
:1007A0000E94F60F42E0BE016D5C7F4F8AEE92E040
:1007B0000E94D9088AEE92E00E94ED07E5960FB6F6
:1007C000F894DEBF0FBECDBFDF91CF9108950F9398
:1007D0001F930E94C50B0091E4021091E502209145
:1007E000E6023091E7026017710782079307D8F09D
:1007F00060E080910C010E94D60C60E080910A01BB
:100800000E94D60C60E0809108010E94D60C60E046
:10081000809106010E94D60C60E0809104011F9136
:100820000F910C94D60C1F910F9108950F931F9365
:1008300026E040E855E260E070E082E493E00E9448
:10084000EF0D0E949C019093E9028093E80261E021
:1008500080910C010E949D0C61E080910A010E9430
:100860009D0C61E0809108010E949D0C61E08091E7
:1008700006010E949D0C61E0809104010E949D0C84
:1008800060E080910C010E94D60C60E080910A012A
:100890000E94D60C60E0809108010E94D60C60E0B6
:1008A000809106010E94D60C60E0809104010E94B4
:1008B000D60C8AEE92E00E94FC09811106C06EE817
:1008C00072E082E493E00E94410F0DEC1CEC2CE4FA
:1008D0003DE340E050E469ED73E48AEE92E00E946B
:1008E0002D0666E08AEE92E00E9430076FE972E022
:1008F00082E493E01F910F910C94340F0E94C10287
:100900000C94E70320E131E040E06AE08AEE92E0F7
:100910000C940405CF93CFB7F894809132038111E2
:1009200027C0E2ECF2E08491EEEAF2E09491E82F45
:10093000F0E0EE0FFF1FEA52FD4FA591B4918C91AC
:10094000892321F461E08AE00E94D60C61E08AE00C
:100950000E949D0C8CB580618CBD8CB580648CBD73
:1009600061E08DE00E949D0C61E08BE00E949D0C97
:10097000809132038F5F80933203CFBFCF91089570
:100980009FB7F89480913203882319F081508093A7
:10099000320380913203811105C08CB58F7B8CBDF1
:1009A000109231039FBF08956EBD00000DB407FE85
:1009B000FDCF8EB508958CB580688CBD08958CB53B
:1009C0008F778CBD08958CB5611102C0806201C023
:1009D0008F7D8CBD08958CB5837F682B6CBD089589
:1009E0009CB5862F83709C7F892B8CBD8DB562FB57
:1009F000662760F98E7F862B8DBD08950C948A043E
:100A00000C94C00408950895FC018FEB92E091834B
:100A100080836683478381E085831482DF01AE5B38
:100A2000BF4F11961C921E92129711961C921E9205
:100A3000149611961C921E923383228381E090E0DB
:100A40009287818708950F931F93CF93DF93EC01D3
:100A5000062F1FB7F89460E08E810E94D60C8A8121
:100A60009B81DC01ED91FC91602F6F770190F0810B
:100A7000E02D09958A819B81DC01ED91FC9101902B
:100A8000F081E02D60E00995082F61E08E810E94E1
:100A9000D60C1FBF802FDF91CF911F910F9108952A
:100AA000EF92FF920F931F93CF93DF931F92CDB7D7
:100AB000DEB77C01062F1FB7F89460E0DC011696C4
:100AC0008C9149830E94D60CF70182819381DC01CD
:100AD000ED91FC91602F60680190F081E02D099507
:100AE000F70182819381DC01ED91FC910190F0810D
:100AF000E02D4981642F099561E0F70186810E940C
:100B0000D60C1FBF0F90DF91CF911F910F91FF90D7
:100B1000EF90089540E867E00E94500561E070E0C2
:100B200080E090E00C94F40BCF92DF92EF92FF9272
:100B30000F931F93CF93DF9300D0CDB7DEB78C0117
:100B4000D62EF22EEFB6F89460E0DC0116968C916A
:100B500049835A830E94D60CF80182819381DC017B
:100B6000ED91FC916D2D6F770190F081E02D09954D
:100B70004981C42E5A81D52EF40EFC1479F0F80167
:100B800082819381DC01ED91FC910190F081E02D57
:100B900060E00995F60181936F01EFCF61E0D80124
:100BA00016968C910E94D60CEFBE0F900F90DF919D
:100BB000CF911F910F91FF90EF90DF90CF9008950C
:100BC000CF92DF92EF92FF920F931F93CF93DF9319
:100BD00000D0CDB7DEB78C01D62EF22EEFB6F8944A
:100BE00060E0DC0116968C9149835A830E94D60CF2
:100BF000F80182819381DC01ED91FC916D2D60689B
:100C00000190F081E02D09954981C42E5A81D52E9D
:100C1000F40EFC1471F0F80182819381D6016D917C
:100C20006D01DC01ED91FC910190F081E02D0995C1
:100C3000F0CF61E0F80186810E94D60CEFBE0F90E4
:100C40000F90DF91CF911F910F91FF90EF90DF9068
:100C5000CF90089562E00C9423056F927F928F925B
:100C60009F92AF92BF92CF92DF92EF92FF920F933B
:100C70001F93CF93DF9300D000D0CDB7DEB73C01F8
:100C80006A017B014801590120E030E040E753E46C
:100C9000C701B6010E94841087FDBAC020E030E091
:100CA00040E754E4C701B6010E94E41118160CF4A1
:100CB000AFC020E030E040EF53E4C701B6010E942E
:100CC000E41120E030E0A90187FD2EC0C501B40188
:100CD0000E94841087FD9CC023E333E343EA5EE374
:100CE000C501B4010E94E41118160CF491C020E073
:100CF00030E040E05FE3C701B6010E94E8116B01FC
:100D00007C0120E034E244E759E4C501B4010E94CB
:100D1000E81120E030E44CE954E40E9488100E947D
:100D2000F010B62E00E623C0C501B4010E94841065
:100D300087FD6EC023E333E343E25EE3C501B40104
:100D40000E94E41118160CF463C020E034E244E77A
:100D500059E4C501B4010E94E81120E030E44CE1FF
:100D600054E40E9488100E94F010B62E00E420E0A7
:100D700030E040E251E4C701B6010E9488106B01E7
:100D80007C010E941C119B01AC0129833A834B8397
:100D90005C830E94F010162F1851102B29813A8184
:100DA0004B815C81C701B6010E941F1020E030E03A
:100DB0004AE757E40E94E8110E94F010062F40E035
:100DC00063E7C30179830E94500540E064E7C301F3
:100DD0000E945005412F65E7C3010E9450057981AB
:100DE000472F66E7C3010E945005402F67E7C30104
:100DF0000E9450054B2D6AE2C3010E945005C301B9
:100E00000E942A0683FB882780F991E0892701C088
:100E100080E00F900F900F900F90DF91CF911F9176
:100E20000F91FF90EF90DF90CF90BF90AF909F9089
:100E30008F907F906F900895462F67E00C94500537
:100E4000CF93DF93EC018C81813039F06D81646048
:100E5000CE010E941C0781E08C83DF91CF91089521
:100E6000462F6DE60C9450050F931F93CF93DF939D
:100E7000EC018B01FB0140816CE10E945005F801FF
:100E800041816FE1CE010E945005A8014E5F5F4F86
:100E900026E060E2CE010E94E005A801485F5F4FB6
:100EA00023E06CE2CE010E94E005F801438568E58D
:100EB000CE010E945005F801448569E6CE010E94EA
:100EC0005005A801435F5F4F25E06EE6CE01DF913C
:100ED000CF911F910F910C94E0050F931F93CF9327
:100EE000DF93CDB7DEB762970FB6F894DEBF0FBEC3
:100EF000CDBF8C016C317105B8F482E1869F900101
:100F0000879F300D112426553F4F42E150E0B90133
:100F1000CE0101960E949B12BE016F5F7F4FC801F8
:100F20000E94340781E001C080E062960FB6F89419
:100F3000DEBF0FBECDBFDF91CF911F910F910895FE
:100F4000462F64E30C945005242FAB0166E30C9408
:100F5000E0052FB7F894FC01138616AE2FBF089555
:100F6000CF93DF93EC018EAD811103C0CE010E94BF
:100F700020078EADDF91CF9108958F929F92AF920F
:100F8000BF92CF92DF92EF92FF92CF93DF93EC016B
:100F90006B010E94C50B4B015C01E12CF12C0E94FE
:100FA000C50B681979098A099B096C157D058E05A1
:100FB0009F0538F4CE010E94B007882381F381E0B9
:100FC00001C080E0DF91CF91FF90EF90DF90CF9054
:100FD000BF90AF909F908F900895FC0124812230A4
:100FE000E1F30895DF92EF92FF920F931F93CF9357
:100FF000DF93EC017B018A010E94B0078823C1F0D6
:10100000DFB6F8948B85F8019081891710F48B85F1
:101010008083F801408150E0BE01645F7F4FC701CB
:101020000E94A412CE010E94A907DFBE81E001C088
:1010300080E0DF91CF911F910F91FF90EF90DF90B3
:1010400008952FB7F894FC01138617AE2FBF0895AB
:101050000F931F93CF93DF93EC01142F8B8550E0F8
:101060009A01280F311D2333310578F40FB7F89416
:101070008B8590E00C968C0F9D1F0E94A4128B858F
:10108000810F8B870FBF81E001C080E0DF91CF919E
:101090001F910F9108950F931F93CF93DF9300D06B
:1010A0001F92CDB7DEB78C014B8369837A830E9490
:1010B00021084B8169817A81442351F0C8010F9046
:1010C0000F900F90DF91CF911F910F910C942808F2
:1010D00080E00F900F900F90DF91CF911F910F91B3
:1010E00008951F93CF93DF93EC019FAD8B859817E5
:1010F000A0F41B858FAD181B1C3308F01BE34FAD0C
:1011000050E0445F5F4F4C0F5D1F212F6FE7CE0112
:101110000E94E0058FAD810F8FAFDF91CF911F91BE
:101120000895FC0183850895CF93DF93EC0143E09C
:1011300068E00E94500540E068E0CE01DF91CF9169
:101140000C945005CF93DF93EC0142E068E00E94DD
:10115000500540E068E0CE01DF91CF910C9450053E
:10116000CF93DF93EC018C81823061F06D816860F8
:10117000CE010E941C0782E08C83CE01DF91CF91CB
:101180000C94A208DF91CF910895CF93DF93EC01E7
:101190000E9471084B856EE3CE010E945005CE017E
:1011A000DF91CF910C94B008FC01148217AE0C941F
:1011B000C508EF92FF921F93CF93DF9300D01F9249
:1011C000CDB7DEB77C014B8369837A830E94ED073C
:1011D0001FB7F8944B8169817A81C7010E944B083F
:1011E000882329F0C7010E94C50881E001C080E082
:1011F0001FBF0F900F900F90DF91CF911F91FF9025
:10120000EF900895FF920F931F93CF93DF9300D039
:10121000CDB7DEB78C0122E0AE014F5F5F4F63E0D8
:101220000E949405898187FF13C0C8010E94940819
:10123000D80114968C91823021F4C8010E94D40800
:1012400007C0F8018481813019F4C8010E94A90700
:10125000898185FF03C0C8010E947108898184FFCC
:1012600003C0C8010E949108898183FF08C0D8018A
:10127000ED91FC910190F081E02DC80109958A81E2
:1012800083FF08C0D801ED91FC910280F381E02D2D
:10129000C8010995298122FF0AC0F801EC5BFF4FC4
:1012A00080819181019691838083F801148221FFCE
:1012B0002EC06BE4C8010E942305F82EF2E3F81754
:1012C00008F453C0D8011B968C91F81608F44DC051
:1012D000D8011B968C911B971B964C912F2D281B88
:1012E00050E0445F5F4F400F511F6FE7C8010E94FD
:1012F0009405F801EE5BFF4F208131812F5F3F4F56
:1013000031832083F801F386148281E086AF8981DE
:1013100080FF1CC0F801E05CFF4F80819181019645
:1013200091838083C8010E94A907C8010E94A20876
:10133000F80114828481813049F065816460C801BC
:101340000E941C0781E0D80114968C938A8186FF45
:1013500019C066E2C8010E942305F801EA5BFF4F4D
:101360008083C8010E94A2080AC0F801E05CFF4F18
:1013700080819181019691838083F8011482C80154
:101380000E94A9070F900F90DF91CF911F910F91AD
:10139000FF9008958091330390913403009711F0EA
:1013A0000C940209089580913503909136030097BB
:1013B00011F00C940209089580913703909138033D
:1013C000009711F00C9402090895462F6AE30C94DB
:1013D0005005462F6BE30C945005462F6CE30C949C
:1013E0005005462F6DE30C945005462F21E042270F
:1013F000419563E40C9450050F931F93CF93DF93B3
:1014000000D0CDB7DEB78C0160E170E080E090E005
:101410000E94F40B61E0D80116968C910E949D0CFD
:1014200061E0F80186810E94D60CD80112968D9158
:101430009C911397DC01ED91FC910680F781E02DE2
:101440000995F80182819381DC01ED91FC9104847E
:10145000F585E02D60E00995F80182819381DC013A
:10146000ED91FC910284F385E02D61E00995F8018E
:1014700082819381DC01ED91FC910684F785E02D5A
:1014800061E0099564E670E080E090E00E94F40B72
:10149000C8010E948A0560E0C8010E942305F80186
:1014A00080878750823008F0AFC08781811109C0E2
:1014B000109334030093330342E050E06AEC79E088
:1014C00016C0813049F4109336030093350342E08F
:1014D00050E063ED79E00BC0823009F095C01093C5
:1014E00038030093370342E050E06CED79E00E944E
:1014F0000D0BC8010E942108C8010E94A90744E001
:101500006DE7C8010E94500547E36EE7C8010E94DD
:101510005005D80119964C9143704C6860E3C8019E
:101520000E94500548E862E3C8010E94500542E469
:1015300063E3C8010E94500568E0C8010E94A0074B
:101540008DE2898384ED8A8342E0BE016F5F7F4F25
:10155000C8010E94A40760E0C8010E94F50940E0AC
:101560006FE3C8010E94500560E0C8010E94E509D0
:1015700060E0C8010E94E90960E0C8010E94ED092D
:1015800060E0C8010E94F10942E16BE0C8010E94DD
:10159000500545E16CE0C8010E94500547EB65E04D
:1015A000C8010E94500540E466E0C8010E94500551
:1015B00040E063E7C8010E94500540E064E7C801CD
:1015C0000E94500543E565E7C8010E94500544E6C6
:1015D00066E7C8010E94500540E067E7C8010E9425
:1015E000500540E56AE2C8010E945005C8010E940A
:1015F0002A0663E070E0C8010E946D0763E0C8013D
:101600000E94300781E001C080E00F900F90DF91D1
:10161000CF911F910F91089508958230E8F4E82F3B
:10162000F0E0EE0FFF1FEE5EFE4F718360838130AE
:1016300041F0809169008C7F842B80936900E89A47
:10164000089580916900440F551F440F551F837FF3
:10165000842B80936900E99A08951F920F920FB628
:101660000F9211242F933F934F935F936F937F9328
:101670008F939F93AF93BF93EF93FF93E0911201EA
:10168000F09113010995FF91EF91BF91AF919F9157
:101690008F917F916F915F914F913F912F910F901B
:1016A0000FBE0F901F9018951F920F920FB60F92BA
:1016B00011242F933F934F935F936F937F938F9357
:1016C0009F93AF93BF93EF93FF93E0911401F09139
:1016D00015010995FF91EF91BF91AF919F918F9166
:1016E0007F916F915F914F913F912F910F900FBE1E
:1016F0000F901F9018951F920F920FB60F92112402
:101700002F933F938F939F93AF93BF9380913A030F
:1017100090913B03A0913C03B0913D03309139037C
:1017200023E0230F2D3720F40196A11DB11D05C024
:1017300026E8230F0296A11DB11D20933903809343
:101740003A0390933B03A0933C03B0933D038091F5
:101750003E0390913F03A0914003B0914103019655
:10176000A11DB11D80933E0390933F03A0934003BE
:10177000B0934103BF91AF919F918F913F912F9172
:101780000F900FBE0F901F9018952FB7F89460918F
:101790003A0370913B0380913C0390913D032FBF2E
:1017A00008953FB7F89480913E0390913F03A09134
:1017B0004003B091410326B5A89B05C02F3F19F007
:1017C0000196A11DB11D3FBF6627782F892F9A2F43
:1017D000620F711D811D911D42E0660F771F881FEA
:1017E000991F4A95D1F70895CF92DF92EF92FF9219
:1017F000CF93DF936B017C010E94D10BEB01C114ED
:10180000D104E104F10489F00E941E100E94D10B62
:101810006C1B7D0B683E734090F381E0C81AD108C1
:10182000E108F108C851DC4FEACFDF91CF91FF907A
:10183000EF90DF90CF900895789484B5826084BD56
:1018400084B5816084BD85B5826085BD85B58160C4
:1018500085BDEEE6F0E0808181608083E1E8F0E024
:101860001082808182608083808181608083E0E853
:10187000F0E0808181608083E1EBF0E08081846032
:101880008083E0EBF0E0808181608083EAE7F0E034
:101890008081846080838081826080838081816098
:1018A00080838081806880831092C10008958E308B
:1018B00008F08E5087702091160190E4299F9001C6
:1018C0001124822B80937C0080917A008064809325
:1018D0007A0080917A0086FDFCCF8091780020917B
:1018E000790090E0922B0895833081F028F48130C4
:1018F00099F08230A1F008958730A9F08830B9F0CE
:101900008430D1F4809180008F7D03C0809180006D
:101910008F7780938000089584B58F7702C084B557
:101920008F7D84BD08958091B0008F7703C0809132
:10193000B0008F7D8093B0000895CF93DF9390E047
:10194000FC01EC55FD4F2491FC01E854FD4F8491BE
:10195000882349F190E0880F991FFC01EA52FD4F5E
:10196000A591B49184539D4FFC01C591D4919FB72B
:10197000611108C0F8948C91209582238C93888102
:1019800082230AC0623051F4F8948C91322F309542
:1019900083238C938881822B888304C0F8948C9154
:1019A000822B8C939FBFDF91CF9108950F931F934C
:1019B000CF93DF931F92CDB7DEB7282F30E0F90128
:1019C000E057FD4F8491F901EC55FD4F1491F90159
:1019D000E854FD4F04910023C9F0882321F0698366
:1019E0000E94740C6981E02FF0E0EE0FFF1FE453BA
:1019F000FD4FA591B4919FB7F8948C91611103C0EC
:101A00001095812301C0812B8C939FBF0F90DF9194
:101A1000CF911F910F910895FC01818D228D90E04F
:101A2000805C9F4F821B91098F7399270895FC0159
:101A3000918D828D981731F0828DE80FF11D858D83
:101A400090E008958FEF9FEF0895FC01918D828DB6
:101A5000981761F0828DDF01A80FB11D5D968C9102
:101A6000928D9F5F9F73928F90E008958FEF9FEF0D
:101A7000089589EA9EE0892B49F080E090E0892B67
:101A800029F00E94A90E81110C9400000895FC0118
:101A9000848DDF01A80FB11DA35ABF4F2C91848DF7
:101AA00090E001968F739927848FA689B7892C932C
:101AB000A089B1898C9180648C93938D848D9813C7
:101AC00006C00288F389E02D80818F7D8083089590
:101AD000CF93DF93EC01888D8823C9F0EA89FB89D5
:101AE000808185FD05C0A889B9898C9186FD0FC0CC
:101AF0000FB607FCF5CF808185FFF2CFA889B989A1
:101B00008C9185FFEDCFCE010E94470DE7CFDF918D
:101B1000CF910895CF92DF92FF920F931F93CF93AF
:101B2000DF931F92CDB7DEB76C0181E0D6015896E6
:101B30008C9358975B969C915B975C968C915C9785
:101B4000981307C05096ED91FC915197808185FDC7
:101B50002EC0F601038D10E00F5F1F4F0F7311278A
:101B6000F02EF601848DF81211C00FB607FCF9CFE4
:101B7000D6015096ED91FC915197808185FFF1CF70
:101B8000C60169830E94470D6981EBCF838DE80F01
:101B9000F11DE35AFF4F6083D6015B960C935B9770
:101BA0005296ED91FC915397808180620CC0D601D2
:101BB0005696ED91FC91579760835096ED91FC916C
:101BC000519780818064808381E090E00F90DF9165
:101BD000CF911F910F91FF90DF90CF900895BF920A
:101BE000CF92DF92EF92FF92CF93DF93EC016A01E5
:101BF0007B01B22EE889F98982E08083411581EE6C
:101C0000580761057105A1F060E079E08DE390E08F
:101C1000A70196010E945F12215031094109510923
:101C20005695479537952795211580E1380798F007
:101C3000E889F989108260E874E88EE190E0A701F4
:101C400096010E945F1221503109410951095695B0
:101C5000479537952795EC85FD853083EE85FF8583
:101C60002083188EEC89FD89B082EA89FB89808106
:101C700080618083EA89FB89808188608083EA892A
:101C8000FB89808180688083EA89FB8980818F7DE0
:101C90008083DF91CF91FF90EF90DF90CF90BF9046
:101CA00008951F920F920FB60F9211242F938F93C6
:101CB0009F93EF93FF93E0915203F0915303808140
:101CC000E0915803F091590382FD12C090818091F8
:101CD0005B038F5F8F7320915C03821751F0E0915B
:101CE0005B03F0E0EE5BFC4F958F80935B0301C0DC
:101CF0008081FF91EF919F918F912F910F900FBE57
:101D00000F901F9018951F920F920FB60F921124EB
:101D10002F933F934F935F936F937F938F939F93F3
:101D2000AF93BF93EF93FF9382E493E00E94470D3C
:101D3000FF91EF91BF91AF919F918F917F916F91A3
:101D40005F914F913F912F910F900FBE0F901F9079
:101D5000189582E493E00E940C0D21E0892B09F490
:101D600020E0822F0895109245031092440388EEDC
:101D700093E0A0E0B0E08093460390934703A093E4
:101D80004803B093490387EC92E090934303809318
:101D9000420385EC90E090934F0380934E0384ECD4
:101DA00090E0909351038093500380EC90E09093E7
:101DB00053038093520381EC90E0909355038093FA
:101DC000540382EC90E0909357038093560386EC83
:101DD00090E0909359038093580310925B03109204
:101DE0005C0310925D0310925E030895CF92DF9220
:101DF000EF92FF920F931F93CF93DF937C016A01C1
:101E0000EB0100E010E00C151D0571F06991D701A0
:101E1000ED91FC910190F081E02DC7010995892B8E
:101E200019F00F5F1F4FEFCFC801DF91CF911F91C6
:101E30000F91FF90EF90DF90CF900895611571059D
:101E400081F0DB010D900020E9F7AD01415051090F
:101E5000461B570BDC01ED91FC910280F381E02DD4
:101E6000099480E090E008950C941E0FDC01ED9140
:101E7000FC910190F081E02D099463ED72E00C94E7
:101E80001E0F0F931F93CF93DF93EC010E941E0F41
:101E90008C01CE010E943D0F800F911FDF91CF91E9
:101EA0001F910F9108958F929F92AF92BF92CF9200
:101EB000DF92EF92FF920F931F93CF93DF93CDB7F3
:101EC000DEB7A1970FB6F894DEBF0FBECDBF7C0181
:101ED000C42EE52FCB01D22E19A221E02D1510F032
:101EE0002AE0D22E8E010F5D1F4F8D2C912CA12C3C
:101EF000B12C6C2D7E2FA50194010E945F128C2DB8
:101F0000D29E80191124015011098A3014F4805D89
:101F100001C0895CF8018083211531054105510517
:101F200021F0C22EE32FCA01E4CFB801C7010E94FD
:101F30001E0FA1960FB6F894DEBF0FBECDBFDF9186
:101F4000CF911F910F91FF90EF90DF90CF90BF90B6
:101F5000AF909F908F900895CF92DF92EF92FF9273
:101F60000F931F93CF93DF93EC016A017B0121153F
:101F7000310579F4E881F9810190F081E02D642F39
:101F8000DF91CF911F910F91FF90EF90DF90CF9055
:101F900009942A303105E9F477FF1AC06DE20E94F6
:101FA000360F8C0144275527BA014C195D096E097B
:101FB0007F092AE0CE010E94530F800F911FDF910D
:101FC000CF911F910F91FF90EF90DF90CF900895E8
:101FD0002AE0B701A601CE01DF91CF911F910F91A9
:101FE000FF90EF90DF90CF900C94530F0F931F93BF
:101FF000CF93DF93EC019A01AB01662757FD609503
:10200000762F0E94AC0F8C01CE010E943D0F800FF5
:10201000911FDF91CF911F910F91089508950E9414
:102020001C0C0E940E100E941604C9E3DDE00E9401
:102030007E042097E1F30E94390DF9CF089550589E
:10204000BB27AA270ED06FC160D130F065D120F038
:1020500031F49F3F11F41EF455C10EF4E095E7FBF7
:1020600022C1E92F71D180F3BA1762077307840781
:10207000950718F071F49EF5A0C10EF4E0950B2EB3
:10208000BA2FA02D0B01B90190010C01CA01A001CA
:102090001124FF27591B99F0593F50F4503E68F125
:1020A0001A16F040A22F232F342F4427585FF3CF66
:1020B000469537952795A795F0405395C9F77EF437
:1020C0001F16BA0B620B730B840BBAF09150A1F080
:1020D000FF0FBB1F661F771F881FC2F70EC0BA0F06
:1020E000621F731F841F48F4879577956795B7958E
:1020F000F7959E3F08F0B3CF9395880F08F0992786
:10210000EE0F979587950895AAD008F481E0089579
:102110000CD009C101D140F0F8D030F021F45F3F7C
:1021200019F0C1C051114AC1EDC00ED198F39923E5
:10213000C9F35523B1F3951B550BBB27AA2762178B
:102140007307840738F09F5F5F4F220F331F441FD0
:10215000AA1FA9F333D00E2E3AF0E0E830D0915008
:102160005040E695001CCAF729D0FE2F27D0660FF5
:10217000771F881FBB1F261737074807AB07B0E834
:1021800009F0BB0B802DBF01FF2793585F4F2AF04A
:102190009E3F510568F087C011C15F3FECF3983E48
:1021A000DCF3869577956795B795F7959F5FC9F7A7
:1021B000880F911D9695879597F90895E1E0660F30
:1021C000771F881FBB1F621773078407BA0720F0A9
:1021D000621B730B840BBA0BEE1F88F7E095089512
:1021E000BBD088F09F5790F0B92F9927B751A0F036
:1021F000D1F0660F771F881F991F1AF0BA95C9F79B
:1022000012C0B13081F0D9D0B1E00895D6C0672FA7
:10221000782F8827B85F39F0B93FCCF3869577954A
:102220006795B395D9F73EF4909580957095619533
:102230007F4F8F4F9F4F0895A9D080F09F3740F474
:1022400091110EF0BBC060E070E080E89FEB089554
:1022500026F41B16611D711D811D2BC045C0990FF1
:102260000008550FAA0BE0E8FEEF16161706E80760
:10227000F907C0F012161306E407F50798F0621B81
:10228000730B840B950B39F40A2661F0232B242B56
:10229000252B21F408950A2609F4A140A6958FEF75
:1022A000811D811D089597F99F6780E870E060E0C7
:1022B0000895882371F4772321F09850872B762F87
:1022C00007C0662311F499270DC09051862B70E04A
:1022D00060E02AF09A95660F771F881FDAF7880F5B
:1022E0009695879597F908959F3F31F0915020F486
:1022F000879577956795B795880F911D96958795E2
:1023000097F908959FEF80EC089500240A9416161B
:10231000170618060906089500240A9412161306D3
:10232000140605060895092E0394000C11F4882361
:1023300052F0BB0F40F4BF2B11F460FF04C06F5F7D
:102340007F4F8F4F9F4F089557FD9058440F551F53
:1023500059F05F3F71F04795880F97FB991F61F027
:102360009F3F79F087950895121613061406551F9E
:10237000F2CF4695F1DF08C0161617061806991F0A
:10238000F1CF86957105610508940895E5DFA0F009
:10239000BEE7B91788F4BB279F3860F41616B11D45
:1023A000672F782F8827985FF7CF86957795679561
:1023B000B11D93959639C8F30895E894BB27662715
:1023C0007727CB0197F908954ADF08F48FEF089536
:1023D0000BD0A9CF9ADF28F09FDF18F0952309F0E2
:1023E00062CF90CF1124EACFAFDFA0F3959FD1F356
:1023F000950F50E0551F629FF001729FBB27F00DB3
:10240000B11D639FAA27F00DB11DAA1F649F662707
:10241000B00DA11D661F829F2227B00DA11D621F56
:10242000739FB00DA11D621F839FA00D611D221F10
:10243000749F3327A00D611D231F849F600D211DF4
:10244000822F762F6A2F11249F5750408AF0E1F097
:1024500088234AF0EE0FFF1FBB1F661F771F881FE0
:1024600091505040A9F79E3F510570F01CCFA6CF68
:102470005F3FECF3983EDCF3869577956795B795CB
:10248000F795E7959F5FC1F7FE2B880F911D9695F5
:10249000879597F9089597FB072E16F4009407D0B7
:1024A00077FD09D00E94871207FC05D03EF4909575
:1024B00081959F4F0895709561957F4F0895A1E292
:1024C0001A2EAA1BBB1BFD010DC0AA1FBB1FEE1FAE
:1024D000FF1FA217B307E407F50720F0A21BB30BF9
:1024E000E40BF50B661F771F881F991F1A9469F775
:1024F00060957095809590959B01AC01BD01CF01D1
:102500000895EE0FFF1F0590F491E02D0994AA1B8A
:10251000BB1B51E107C0AA1FBB1FA617B70710F0CE
:10252000A61BB70B881F991F5A95A9F78095909500
:10253000BC01CD010895FB01DC0102C005900D92A4
:1025400041505040D8F70895FB01DC0102C00190D2
:0E2550000D9241505040D8F70895F894FFCFF7
:10255E0001000000090008000700060005000E003B
:10256E00AB020C0B0C0B017370726177647A656EA3
:10257E00696520637A79206F6462696F726E696B28
:10258E00207A796A65006F6470616C656E6965208A
:10259E0077796A736369612031006F6470616C656D
:1025AE006E69652077796A736369612032006F64A2
:1025BE0070616C656E69652077796A7363696120F5
:1025CE0033006F6470616C656E69652077796A732C
:1025DE006369612034006F6470616C656E6965209B
:1025EE0077796A736369612035006F6470616C6519
:1025FE006E69652077796A736369612036006F644E
:10260E0070616C656E69652077796A7363696120A4
:10261E0037006F6470616C656E69652077796A73D7
:10262E006369612038006F6470616C656E69652046
:10263E0077796A736369612039006F6470616C65C4
:10264E006E69652077796A73636961203130006F36
:10265E006470616C656E69652077796A7363696110
:10266E00203131006F6470616C656E696520777919
:10267E006A73636961203132006F6470616C656EDC
:10268E0069652077796A73636961203133006F64FD
:10269E0070616C656E69652077796A736369612014
:1026AE003134006F6470616C656E69652077796A8C
:1026BE0073636961203135006F6470616C656E699A
:1026CE00652077796A73636961203136006D616DBB
:1026DE0079206F64706F776965647A3A200052468C
:1026EE00323220696E6974206661696C65640073AC
:1026FE007461727475700000000000D404DB04DF96
:10270E0004FE040005E304EB04F0040000000002E4
:10271E00050305000000008A0DF60E0C0D250D17A1
:10272E000D680D0D0A006E616E00696E66006F76A3
:04273E0066002E0003
:00000001FF
